:020000040800F2
:1000000000000220F1C10008EDC10008EDC10008A8
:10001000EDC10008EDC10008EDC1000800000000BE
:10002000000000000000000000000000EDC100081A
:10003000EDC1000800000000EDC10008EDC100089E
:10004000EDC10008EDC10008EDC10008EDC10008D8
:10005000EDC10008EDC10008EDC10008EDC10008C8
:10006000EDC10008EDC10008EDC10008EDC10008B8
:10007000EDC10008EDC10008EDC10008EDC10008A8
:10008000EDC10008EDC10008EDC10008EDC1000898
:10009000EDC10008EDC10008EDC10008EDC1000888
:1000A000EDC10008EDC10008EDC10008EDC1000878
:1000B00029060008EDC10008EDC10008EDC10008E7
:1000C000EDC10008EDC10008EDC10008EDC1000858
:1000D000EDC1000809910008EDC10008EDC100085C
:1000E000EDC10008EDC10008EDC10008EDC1000838
:1000F000EDC10008EDC10008EDC10008EDC1000828
:10010000EDC10008EDC10008EDC10008EDC1000817
:10011000EDC10008DD930008EDC10008EDC1000845
:10012000EDC10008EDC10008EDC10008EDC10008F7
:10013000EDC10008EDC10008EDC10008EDC10008E7
:10014000EDC10008EDC10008EDC10008EDC10008D7
:10015000EDC10008EDC10008EDC10008EDC10008C7
:10016000EDC10008EDC10008EDC10008EDC10008B7
:10017000EDC10008EDC10008EDC10008EDC10008A7
:10018000EDC10008EDC1000808B50548054B1B1A74
:10019000062B00D808BD044B002BFBD09847F9E78D
:1001A0009C0600209F0600200000000008B50748BC
:1001B000074B1B1A9B1003EBD373591000D108BDDA
:1001C000044A002AFBD09047F9E700BF9C060020B4
:1001D0009C0600200000000010B5064C237843B9AF
:1001E000FFF7D2FF044B13B10448AFF300800123A3
:1001F000237010BDA0060020000000001C6B040846
:1002000008B5074B1BB107480749AFF30080074803
:10021000036813B1064B03B19847BDE80840C5E732
:10022000000000001C6B0408A406002098060020B3
:1002300000000000134B002B08BF114B9D46A3F597
:10024000803A00218B460F461148124A121A0CF0D0
:100250006AFD0D4B002B00D098470C4B002B00D0B3
:1002600098470020002104000D000B480CF0EBFC27
:100270000CF01AFD2000290004F088FD0CF0EAFCC7
:100280000000080000000000000000000000000066
:10029000A00600209CBD00207DCC000838B54FF49E
:1002A000B971044604F0C9FE0C2204F110000021CB
:1002B0000CF039FD04F11C0500220023AB52023280
:1002C000202AFAD104F13C020021D1540133B3F5C4
:1002D000966FF9D1F023C4F8F034A4F8EC14A4F824
:1002E000EE14284620220CF01EFD0523237409235A
:1002F0006382024B6361A561204638BD0400002083
:10030000222A70B505460E460DD104F0A8FE20281D
:100310000BD90024331928465978013404F0E1FE42
:10032000212CF7D103E0042070BD052070BD002012
:1003300070BD000010B500238EB001F0C004802C09
:1003400002AA08D0C02C03D044B94FF63A6407E0A3
:1003500040F2525404E04FF4E37401E04FF6AE244F
:10036000D45202338900082BC9B2E6D111461030AD
:1003700004AA04230BF0A2FF0023009303480221E8
:1003800004AA142302F0AEFF0EB010BD6C6400206E
:1003900038B5B0F8EC54044645B904F082FE48BBC9
:1003A00004E0A4F8EC240023A4F8EE34B4F8EC3410
:1003B000002B44D0224802F0F3FF0546142D18D933
:1003C000B4F8EE345A1C2344A4F8EE2493F83C10FD
:1003D0002046FFF7AFFFB4F8EE24B4F8EC34143D38
:1003E0009A42ADB2EAD30023A4F8EE34A4F8EC3478
:1003F00038BD38BD134B1B78ABB1204604F097FED7
:1004000063190135212D83F83C00F6D100230E49F4
:10041000E218595C82F85D100133272BF7D148238D
:10042000A4F8EC34BFE7D4F8F024591C9BB29342F3
:10043000B7D223445F2083F83C000B46F5E738BD74
:100440006C6400206864002084D2000808B504F0C1
:1004500006FE2323B0FBF3F0C0B208BD4FF41673C1
:100460000C2202FB0131B1F5966F8ABF4FF49663FF
:10047000C0F8F014C0F8F03470470000F7B502255A
:10048000454E684609F0CAFF00272846012101248D
:100490008DF805508DF806708DF807500AF0B6FA01
:1004A0004FF480533046694600938DF8044009F0BC
:1004B00075FF284621460AF0A9FA102330466946FE
:1004C00000938DF8044009F069FF284621460AF0A0
:1004D0009DFA08233046694600938DF8044009F0E0
:1004E0005DFF284621460AF091FA4FF4005330464A
:1004F000694600938DF8047009F050FF28462146A4
:100500000AF084FA40233046694600938DF804408F
:1005100009F044FF284621460AF078FA20233046A5
:10052000694600938DF8044009F038FF28462146BB
:100530000AF06CFA80233046694600938DF8044037
:1005400009F02CFF284621460AF060FA4FF4807328
:100550003046694600938DF8044009F01FFF284695
:1005600021460AF053FA4FF400733046694600936F
:100570008DF8044009F012FF214604200AF046FAE3
:100580004FF480630548009369468DF8044009F0F4
:1005900005FF03B0F0BD00BF0004024000080240A8
:1005A00037B502A94FF4006321F8023D00250DF193
:1005B0000502044618308DF8055000F0E7FA284689
:1005C000BDF8061009F0DCFF154802210BF007FD0D
:1005D00010B9ADF8060007E011480BF057FCADF874
:1005E000060010480BF052FC054602210C480BF0A7
:1005F000FCFC0B480BF01EFCBDF806109DF8052016
:10060000201D00F09CFA04F12C00294606F05DF94B
:10061000D4F82C330133C4F82C3303B030BD00BF01
:10062000002001400021014008B54FF08040012129
:100630000BF061FA48B14FF0804001210BF066FAEF
:100640000248BDE80840FFF7ABBF08BD6C6400205E
:100650002DE9F041714894B002210BF0C0FC10B1BB
:100660006F48FFF79DFF01A809F0D8FE06A80BF020
:1006700061FB0EA80BF040FB022001210AF0C6F935
:100680004FF480700121002401250AF0EFF90326C0
:1006900001A9644801958DF808608DF80B4009F0B8
:1006A0007DFE294602200AF0B1F929464FF4007078
:1006B0000AF0DCF94FF0020801A95A48CDF804808D
:1006C0008DF808608DF80B4009F068FE062306A837
:1006D00006930794089409940BF018FB0EA94F4851
:1006E0000E948DF83C408DF83D4010941194129476
:1006F0008DF84C500BF0DAFA294648480BF0A3FB72
:100700002A462346454808210BF04CFB294643481E
:100710000BF016FB0EA944480BF0C8FA29464248D4
:100720000BF091FB23462A463F4809210BF03AFB88
:1007300029463D480BF004FB01A809F06FFE0AA80A
:1007400009F0DEFE284629460AF060F929464FF0F6
:1007500000500AF07FF9102701A9344801978DF85D
:1007600008608DF80B4009F019FE20460AA90A948A
:100770000B940D9409F0AEFE2046294609F0C6FE02
:10078000284629460AF066F92A4628480F2109F02A
:1007900081FE4FF4004301A9244801938DF808809D
:1007A00009F0FCFD03A80AF009FEF92303A94FF0A4
:1007B0008040ADF80C300495ADF80E40ADF8144013
:1007C0008DF816400AF0BCFD2346224621464FF024
:1007D00080400BF026FA29464FF080400AF045FE93
:1007E0002A4629464FF080400BF070F91C236846DA
:1007F0008DF800308DF801408DF802508DF80350CF
:100800000AF074FA3946074809F037FE054808210E
:1008100009F031FE14B0BDE8F08100BF00200140B6
:100820006C640020000402400021014000000240EE
:1008300008B54FF40051034809F00BFE431E58421F
:10084000584108BD000402400A460248082109F048
:1008500016BE00BF000402400A4602484FF4805111
:1008600009F00DBE000402400A460248102109F0BA
:1008700006BE00BF000402400A460248402109F0BB
:10088000FEBD00BF000402400A460248202109F0D4
:10089000F6BD00BF000402400A460248802109F06C
:1008A000EEBD00BF000402400A4602484FF48071CA
:1008B00009F0E5BD000402400A4602484FF4007109
:1008C00009F0DDBD000402400A4602484FF4806191
:1008D00009F0D5BD0008024038B5074D0C46284642
:1008E0002246402109F0CBFD284622468021BDE862
:1008F000384009F0C4BD00BF00040240064B1A682E
:1009000040F6B833B2FBF3F221B11346013BFDD1FF
:100910000139F9E7704700BF2C06002000220023B0
:10092000C0E9002300238360C360038243618361C5
:1009300003777047F0B500240025C0E90045002486
:100940000B4E2501AF5D8F4205D13544D5E90245F7
:10095000C0E9004502E00134322CF1D1D0E9004574
:1009600054EA05011DBF8260C36000200420F0BD71
:10097000D0D200082DE9F74F90F81C90D0F818A0BD
:10098000804609F0FE0C80F81CC0D8E900234069BD
:10099000C8F81800C51702FB05F400FB0344A2FBCE
:1009A00000672744F40F01EB610144EA470404F3B4
:1009B0001E04CAEB440A0AEB0104B8F81010C8F888
:1009C0001440013189B241F27075A942A8F81010A3
:1009D00051D184FB04AB4FEADA7646EA4B0680FB42
:1009E00000AB06F31E0584FB00014FEADA7646EA07
:1009F0004B0606F31E0AC60F46EA410606F31E061C
:100A00007343F11702FB0131A6FB02230B44D00F05
:100A1000554440EA430000F31E00A5EB4002C9F331
:100A20004000D8F8083008B1D8F80C304CF001017B
:100A30009A4288F81C1004DB4CF0030C88F81CC0A8
:100A400005E029F0030949F0010988F81C9098F89D
:100A50001C10C1F34001884206D0009108480949A2
:100A600012B21BB201F04FFE0023A8F81030C8F8F4
:100A70001430C8F8183098F81C0003B0BDE8F08FA7
:100A80008C2F0020ABD200080023436183610377E1
:100A90000382704738B50446002321808381437464
:100AA000C381037448000D460CF096F86060284638
:100AB0000CF092F8A060204638BDC289838992B2BA
:100AC0009BB29A42038803D1027C92B9184612E085
:100AD000C189828989B292B2914205D28289C08944
:100AE00013FA80F0801A02E0C1898289881A80B2E4
:100AF00001E000207047834238BF00207047C28960
:100B0000838992B29BB29A4205D1037C03F0FF0223
:100B10009BB100887047C289838992B29BB29A4286
:100B200003D28289C389D01A05E0C38902888189EA
:100B300012FA81F0C01A80B2704710467047037CE9
:100B400030B503F0FF041BB101234374002030BD16
:100B500085894368ADB223F815108189836889B20D
:100B60005A548389028801339BB2838183899BB263
:100B70009A4298BF84818289C38992B29BB29A4279
:100B80004FF0010308BF0374184630BD10B503468B
:100B90008489C089A4B280B2844204D11C7C04F050
:100BA000FF0004B910BDDC895868A4B230F8140005
:100BB0000880D889996880B2095C117000221A7483
:100BC000D9891888013189B2D981D98989B28842F5
:100BD00000D8DA81012010BD03460022407C5A74FF
:100BE000704710B5044607F0FCFD002323756375BC
:100BF0002361204610BD38B5457D0446EDB9037D1F
:100C000093B1012B12D1036919430161C1F307218B
:100C100007F037FEA17C204607F033FE2046E17C3A
:100C200007F02FFE256101E009030161237D0133F7
:100C3000DBB2012B88BF00232375637D0133DBB258
:100C4000022B88BF0023637538BD000038B54FF410
:100C50007A61044604F0F1F9002222826261A26105
:100C600004F11C050023AB520232B2F5AA7FF9D180
:100C700004F5B8720021D1540133C82BFAD14823AE
:100C8000A4F83C32A4F83812A4F83A1228464FF4DB
:100C9000AA720CF048F806232382024B6561A36117
:100CA000204638BD5E00002008B5B0F8383213B9D0
:100CB00004F0F7F900B1012008BD442A70B50646DA
:100CC0000D460CD104F0CBF943280AD90024295D44
:100CD0003046013404F005FA442CF8D103E0042036
:100CE00070BD052070BD002070BD00002DE9F041F1
:100CF000ADF5227D02AC07460D460DF5A4782646DB
:100D00002B0620464CBF0E490E49282228340CF0F1
:100D100001F86D004445EDB2F2D107F11000314603
:100D20002246A0230BF0C6FC0023009306480621B0
:100D30002246A02302F0D6FA0DF5227DBDE8F0810F
:100D400018D60008F0D500086C64002038B50446B9
:100D500004F0A7F9B4F8383208B903B938BD2BBB91
:100D6000244A12787AB9B4F83C129AB28A421AD25A
:100D7000B4F83822501C2244A4F83802AA2082F881
:100D800070010133F1E74425204604F0D0F9B4F8AE
:100D90003832013D5A1C234415F0FF05A4F83822CF
:100DA00083F87001F0D10023A4F83A32B4F8383255
:100DB000FBB1114802F0F4FA0546A02D18D9B4F899
:100DC0003A325A1C2344A4F83A2293F87011204670
:100DD000FFF78CFFB4F83A22B4F83832A03D9A42BB
:100DE000ADB2EAD30023A4F83A32A4F8383238BDC1
:100DF00038BD38BD686400206C64002001EB4101FF
:100E00004908483196298ABF9623A0F83C12A0F8D9
:100E10003C32704708B504F022F94423B0FBF3F0EC
:100E2000C0B208BD002202608280C280704700000C
:100E30002DE9F04F002385B0834614462B4A12F863
:100E4000330088425FFA83FA03D112EBCA0A04D155
:100E500047E00133322BF1D143E0DBF80000BAF870
:100E60000230ABF8043008B10BF0B8FEBBF8040058
:100E700040000BF0B1FE04EB44084FF0000CCBF83F
:100E8000000004EB88084FF0000961460CF10103F3
:100E90000393BBF804301FFA8CFC63451FD9084646
:100EA0000291CDF804C00BF07BFE00FB09F2C317E2
:100EB00008FB0323A0FB08451D44DDF804C0DBF854
:100EC00000300299E60F46EA450606F30F0223F8C2
:100ED0001C20DAF80430DDF80CC01944D6E70020F5
:100EE00000E0042005B0BDE8F08F00BF40D6000848
:100EF000C3885A1C92B210B50468C28034F813300B
:100F0000848894429CBF0022C28011B1584280B2B2
:100F100000E0184600B210BD0146002201F8012B86
:100F200000238B540132B2F57A7FF9D1A0F8EA336D
:100F3000A0F8EC33A0F8EE33A0F8F033C0F8F433A7
:100F4000A0F8F833A0F8FA33A0F8FC33A0F8FE3389
:100F5000704700002DE9F84F00270446A0F8EA7317
:100F6000F8B20D5C002D51D000205FFA80F80C26FD
:100F7000DFF8F4C006FB08F60CEB06091CF8066067
:100F8000002E41D0AE4200F10100EED199F8089058
:100F90004FF0000C4FF000405FFA8CF54D4533D216
:100FA000314DDFF8C8A00C2606FB0855B4F8EA63FB
:100FB0006D68054085424FEAE60508D106F0070B4B
:100FC00066191AF80BA076784AEA060607E006F0DA
:100FD00007061AF806A06619767826EA0A06254456
:100FE0000CF1010C6E70B4F8EA5340F2E236B542EF
:100FF00005D90023A4F8EA330420BDE8F88F0135B1
:10100000A4F8EA534008C7E70137A9E79DF828107C
:10101000A4F8FC139DF82C10A4F8FE13D4F8F403E4
:1010200045F6C051B1FBF2F2B1FBF3F3A4F8EE23A5
:10103000A4F8F83308B10BF0D1FDB4F8F8030BF0C5
:10104000CBFDB4F8F823C4F8F4030023540899B294
:10105000914206D2A14234BF01210021C154013383
:10106000F5E70020BDE8F88FD0D70008E0D90008E8
:10107000037810B5002B3ED0B0F8EC131F4C01F0F4
:10108000070200EBD103A25C5B7813400CD0B0F8F0
:10109000FA23D0F8F4339B5C13B1B0F8FC3303E0CF
:1010A000B0F8FC335B429BB2B0F8FA23B0F8F843D7
:1010B000013292B29442A0F8FA239CBF0022A0F819
:1010C000FA23B0F8F023B0F8EE43013292B2944222
:1010D000A0F8F0230FD80131B0F8EA4389B200221A
:1010E0008C42A0F8F023A0F8EC1304D80270A0F80A
:1010F000EC23A0F8FA2318B210BD00BFE0D9000815
:10110000037810B5002B3ED0B0F8EC131F4C01F063
:10111000070200EBD103A25C5B7813400CD0B0F85F
:10112000FA23D0F8F4339B5C13B1B0F8FE3303E03C
:10113000B0F8FE335B429BB2B0F8FA23B0F8F84344
:10114000013292B29442A0F8FA239CBF0022A0F888
:10115000FA23B0F8F023B0F8EE43013292B2944291
:10116000A0F8F0230FD80131B0F8EA4389B2002289
:101170008C42A0F8F023A0F8EC1304D80270A0F879
:10118000EC23A0F8FA2318B210BD00BFE0D9000884
:1011900000230370A0F8EC33A0F8F033A0F8FA3382
:1011A000704700787047B0F8EC3343B9B0F8F033CB
:1011B0002BB9B0F8FA03003018BF012070470120A6
:1011C000704710B50446FFF7EEFF38B901232370CE
:1011D000A4F8EC03A4F8F003A4F8FA0310BD10B5CA
:1011E000002204460023A3540132B2F5807FF9D1D6
:1011F00084F8003184F8013184F8023104F58270FA
:101200004FF4B97103F019FF204610BD1FB57022CD
:101210008DF80E2082788DF80F20E02300228DF8C3
:101220000C3000920423012103AA8DF80D3008F040
:1012300010FA05B05DF804FB1FB57F228DF80A2077
:1012400082788DF80B20E02300228DF808308DF88D
:101250000C1005230092012102AA8DF8093008F034
:10126000F8F905B05DF804FB2DE9F047044688B0B5
:10127000794802F0A0FB00228DF80F20774AE02386
:101280008DF80C3011780D238DF80D3001238DF879
:101290000E30924609B18DF80F30714B1A7899468D
:1012A0002AB19DF80F3043F002038DF80F306D4BDB
:1012B0001A7898462AB19DF80F3043F004038DF850
:1012C0000F30694F3B782BB19DF80F3043F0080386
:1012D0008DF80F30654E33782BB19DF80F3043F009
:1012E00010038DF80F30624B1A781D462AB19DF815
:1012F0000F3043F020038DF80F305E4B1B782BB17D
:101300009DF80F3043F040038DF80F305A4B524890
:101310001B788DF81030594B0DF10A011B788DF8B0
:1013200011300DF10B0202F02EFB9DF80A302BB1AB
:101330009DF8113043F002038DF81130464802F059
:1013400037FB28B19DF8113043F004038DF81130BC
:10135000414802F02AFB28B19DF8113043F0080300
:101360008DF811303C4802F02DFB28B19DF811306A
:1013700043F010038DF811309DF80B302BB19DF820
:10138000113043F020038DF811303D4A9DF81130A3
:101390001278002A0CBF0022402213438DF811302E
:1013A0009AF800302BB1374803F053FA8DF8120049
:1013B00001E08DF8123099F80030A3B1324B1B7860
:1013C00043B1324801F0F4FB8DF813002F4801F0CF
:1013D000F7FB05E00A232E488DF81330FFF736F8A7
:1013E0008DF8140003E08DF813308DF8143098F860
:1013F00000302BB1274802F0D4FF8DF8150001E032
:101400008DF815303B782BB1234805F0C4F98DF8E1
:10141000160001E08DF8163033782BB11F4807F025
:1014200052FC8DF8170001E08DF817302B782BB1A6
:101430001B48FFF7EFFC8DF8180001E08DF818301D
:10144000002300932046012103AA0D2308F001F98F
:1014500008B0BDE8F08700BF6C640020B502002032
:10146000B4020020B3020020B6020020B202002025
:10147000B7020020B1020020EC3200206864002096
:10148000ED32002040100020B0020020F032002099
:10149000C4AF0020189B0020DC330020AC0A0020E1
:1014A000A030002010B5A8B0E0238DF8083000224D
:1014B00001238DF80A208DF80B30D1B2094C615C04
:1014C000131DDBB2013221B128AC234403F8981C70
:1014D000F3E7009102AA01218DF8093008F0B9F86C
:1014E00028B010BDEEDD00082DE9F04F072A97B0B7
:1014F0003BD94B7888790D7891F802A091F8039048
:1015000091F8048091F805C003EB830300F0010E0D
:10151000C0F34007C0F380065B00002001EB000B26
:1015200009AC9BF807B000F804B0013000F1070BDC
:101530005FFA8BFB9345F1D316A9073A51FA82F271
:10154000002102F8341C0B48CDF800A0CDF804901F
:10155000CDF80880CDF80CC0CDF810E005970696C0
:1015600021462A4604F0D2F900E0042017B0BDE875
:10157000F08F00BFE0910020F0B5052A93B02BD981
:101580004B78C8780D7891F802E00E7900EB800076
:1015900003EB830347005B00002001EB000C05AC6C
:1015A0009CF805C000F804C0013000F1050C5FFA9A
:1015B0008CFC9445F1D312A9053A51FA82F200212C
:1015C00002F8341C0648CDF800E001970296214647
:1015D0002A4604F0DBF900E0042013B0F0BD00BFA0
:1015E000E091002030B50B2A8BB01ED9CD78087A57
:1015F0000C784A788B7800950D7901954D79029594
:101600008D790395CD79049500F07F05C009059586
:101610000690487A0790887A0890C97A0991044818
:1016200004EB840104F0D6F900E004200BB030BDD7
:10163000E091002010B5012104464FF4E13207F09B
:10164000DDFF204603214FF41652BDE8104007F09D
:10165000D5BF000030B5134B1B78012B91B01FD8BC
:10166000114B1B78E3B1E0238DF80C3010238DF87B
:101670000E300024E3B2DD1C9342EDB206D210AB73
:101680001D440B5D05F8343C0134F3E7D31C002204
:10169000DBB20092012103AA8DF80D3007F0D9FFCB
:1016A00011B030BDEC320020B502002030B5134B34
:1016B0001B78012B89B01FD8114B1B78E3B1E023B5
:1016C0008DF80C3011238DF80E300024E3B2DD1CB0
:1016D0009342EDB206D208AB1D440B5D05F8143CF5
:1016E0000134F3E7D31C0022DBB20092012103AAEC
:1016F0008DF80D3007F0ADFF09B030BDEC320020A1
:10170000B50200201FB50C4B1B78012B11D80B4BD9
:101710001B7873B11222E0238DF80E2000228DF881
:101720000C3000920323012103AA8DF80D3007F03D
:1017300090FF05B05DF804FBEC320020B5020020FC
:101740001FB50C4B1B78012B11D80B4B1B7873B1B9
:101750001322E0238DF80E2000228DF80C30009229
:101760000323012103AA8DF80D3007F072FF05B0A5
:101770005DF804FBEC320020B502002030B5154CBA
:10178000247814F0FD048DB022D1134D2D78FDB1D5
:1017900000290CBF18211A21E0258DF80A108DF8B8
:1017A00008502146CCB2E51C9C42EDB206D20CACEE
:1017B0002544545C05F8284C0131F3E7002203333B
:1017C000DBB20092012102AA8DF8093007F041FF37
:1017D0000DB030BDEC320020B40200201FB50E4B1E
:1017E0001B7813F0FD0214D10C4B1B788BB1002930
:1017F0004FF0E0030CBF19211B218DF80C308DF840
:101800000E1003230092012103AA8DF80D3007F07A
:1018100020FF05B05DF804FBEC320020B40200208C
:1018200030B5144B1B78032BA5B000D0FBB9124B7D
:101830001B78E3B1E0238DF80C3020238DF80E30B7
:101840000024E3B2DD1C9342EDB206D224AB1D446A
:101850000B5D05F8843C0134F3E7D31C0022DBB2B6
:101860000092012103AA8DF80D3007F0F2FE25B099
:1018700030BD00BFEC320020B30200201FB50D4B7D
:101880001B78032B00D08BB90B4B1B7873B1212233
:10189000E0238DF80E2000228DF80C3000920323F7
:1018A000012103AA8DF80D3007F0D3FE05B05DF8D5
:1018B00004FB00BFEC320020B302002030B5134B14
:1018C0001C7814F0FB04A1B01ED1114B1B78DBB1C6
:1018D000E0238DF8083030238DF80A30E3B2DD1CA8
:1018E0009342EDB206D220AB1D440B5D05F8783C67
:1018F0000134F3E7D31C0022DBB20092012102AADB
:101900008DF8093007F0A5FE21B030BDEC32002083
:10191000B602002030B5134B1C7814F0FB04C3B0A2
:101920001ED1114B1B78DBB1E0238DF80C30312335
:101930008DF80E30E3B2DD1C9342EDB206D242AB1D
:101940001D440B5D05F8FC3C0134F3E7D31C002279
:10195000DBB20092012103AA8DF80D3007F079FE69
:1019600043B030BDEC320020B60200201FB50C4B56
:101970001B7813F0FB0210D10A4B1B786BB1E023EC
:1019800032218DF80C308DF80E10032300920121C6
:1019900003AA8DF80D3007F05CFE05B05DF804FB7E
:1019A000EC320020B602002030B5144B1B78052B1A
:1019B000A5B000D0FBB9124B1B78E3B1E0238DF842
:1019C0000C3040238DF80E300024E3B2DD1C93422E
:1019D000EDB206D224AB1D440B5D05F8843C013406
:1019E000F3E7D31C0022DBB20092012103AA8DF899
:1019F0000D3007F02EFE25B030BD00BFEC320020C8
:101A0000B20200201FB50D4B1B78052B00D08BB9FF
:101A10000B4B1B7873B14122E0238DF80E2000227E
:101A20008DF80C3000920323012103AA8DF80D30AC
:101A300007F00FFE05B05DF804FB00BFEC3200209C
:101A4000B202002030B5124B1B78632BA5B01CD11D
:101A5000E0238DF80C3008238DF80E300024E3B21B
:101A6000DD1C9342EDB206D224AB1D440B5D05F89C
:101A7000843C0134F3E7D31C0022DBB20092012145
:101A800003AA8DF80D3007F0E4FD25B030BD00BF8E
:101A9000EC32002030B5124B1B78602B8BB01CD180
:101AA000E0238DF8083009238DF80A300024E3B2D2
:101AB000DD1C9342EDB206D20AAB1D440B5D05F866
:101AC000203C0134F3E7D31C0022DBB20092012159
:101AD00002AA8DF8093007F0BCFD0BB030BD00BF85
:101AE000EC32002030B590F80231A5B0C3B1E0234C
:101AF0008DF80C30F1238DF80E300022D4B2D31CB7
:101B00000C5DDBB2013224B124AD2B4403F8844CCC
:101B1000F4E70121009103AA8DF80D3007F099FD3B
:101B200025B030BD5F2910B50C465AD024D8052900
:101B30004BD010D8022942D006D8012965D14C4893
:101B40004C49FFF7CFFF71E003293BD004295CD15A
:101B50004748494956E05B2952D006D8062937D074
:101B60000A2952D1424845494CE05C2945D05D29BB
:101B70004BD13F48424945E066293BD00ED8622907
:101B80002CD004D8602940D139483E493AE0632935
:101B900021D0652939D136483B4933E0692926D01F
:101BA00006D8672920D068292FD13148374929E044
:101BB0006A291FD06B2928D12D48354922E02C48AD
:101BC00034491FE02A4834491CE02948334919E0C8
:101BD0002748334916E02648324913E02448324961
:101BE00010E0234831490DE0214831490AE02048FE
:101BF000304907E01E48304904E01D482F4901E004
:101C00001B482F49FFF76EFF05E019482D49FFF7E4
:101C100069FF012C0AD02C4805F0EFFE022C05D1FB
:101C20002A4805F0BEFA042C10D00AE0284802F039
:101C300038FE284804F0D5FE274806F0A7FB032C01
:101C4000EED1264807F07CFD052C04D0244803F093
:101C5000C4FA0A2C02D0234803F022FE224808F0DE
:101C60000FFB21462148BDE8104001F0AFBB00BF8B
:101C70008C2F0020F8D9000825DA000859DA00086E
:101C800073DB00089FDA0008DDDB000816DB0008C4
:101C900054DB0008E8D900080BDA000835DA000840
:101CA00046DA000868DA000885DA0008BADA0008BF
:101CB000F5DA000835DB0008D6DA000895DB000805
:101CC000BADB0008FADB000800610020A0670020F2
:101CD0005C390020207B0020E4120020AC3E002074
:101CE00018A00020E0910020BC0600206C640020B9
:101CF0002DE9F04F142A9FB00C4601D8042001E1D1
:101D00000E78C6F3001380F802318D7891F801C087
:101D1000322DF3D8C978CCF3400306290CF0010228
:101D2000CCF3800BCCF3C00ACCF30019CCF34018F1
:101D30000C93CCF3801C0ED90A2931D0A1F1620793
:101D4000012F19D9A1F15B07052F15D9A1F165075D
:101D5000062FD3D810E0012902D1002ACED022E0EC
:101D6000022903D10C9F002FC8D01CE0032903D106
:101D7000BBF1000FC2D016E0042903D1BAF1000F65
:101D8000BCD010E0052903D1B9F1000FB6D00AE0AC
:101D9000062903D1B8F1000FB0D004E00A2902D11E
:101DA000BCF1000FAAD0A779237910930F2FA5D8E3
:101DB000E379119363791293637A94F80DE01393A6
:101DC000A37A1493E37A1593AEF1800E237B1693D6
:101DD0001FFA8EFEE37BCDF85CE0199394F80EE0D9
:101DE000237C1A93637C1B93AEF1800EA37C1C931F
:101DF0001FFA8EFEE37CCDF860E0247D1D930F92E8
:101E0000CDF838C0FFF78EFE40490F9A0A70404A5D
:101E10000C9B13703F4BDDF838C083F800B03E4B8D
:101E20003E4883F800A03E4B83F800903D4B83F87A
:101E300000803D4BF24383F800C03C4BC2F3C0121C
:101E400029461A7002F0F6FC3948294602F09AFA3F
:101E50003848294604F090FC37482946FEF7FEFA38
:101E60003648294606F020FF35482946FEF7C6FFCA
:101E70003946344801F00CF83946334806F06EFA1A
:101E80003148119906F076FA3946304804F064FF7B
:101E900039462F4802F0B4FE1A9A2548C6F3C0010D
:101EA00002F087FA23481D9904F07DFC234821465F
:101EB00006F011FF109F0097139F0297159F129B2A
:101EC0000497199F01930697149B1C9F03930897EF
:101ED000169B179F05931B9B07933BB2189F099373
:101EE0003BB20A93C6F340130B931A4806F0010164
:101EF000C6F34002C6F3800301F0E6FC154801F08A
:101F0000C3FA00201FB0BDE8F08F00BFB50200206B
:101F1000B4020020B3020020B602002040100020CE
:101F2000B2020020B7020020B1020020B00200205F
:101F3000189B0020DC330020C4AF0020AC0A002036
:101F4000A0300020F0320020E4120020207B00208E
:101F50005C3900206C64002008B5002A36D01C4B88
:101F600009781B788B422FD006290ED90A2926D052
:101F7000A1F16203012B14D9A1F15B03052B10D948
:101F8000A1F16503062B21D80BE0012901D1114BEA
:101F900016E0022901D1104B12E0032901D10F4BA9
:101FA0000EE0042901D10E4B0AE0052901D10D4BA9
:101FB00006E0062901D10C4B02E00A2902D10B4BA5
:101FC0001B781BB1FFF7AEFD002008BD042008BD43
:101FD000EC320020B5020020B4020020B302002041
:101FE000B6020020B2020020B7020020B102002099
:101FF00070B590F80231A4B01BB3E0238DF80C301B
:10200000F2238DF80E300023DDB2DC1C4E5DE4B20D
:1020100024AD0133254416B105F8846CF4E713129E
:1020200005F8843C24A9A31C013451FA84F401214D
:1020300004F8842CDBB2009103AA8DF80D3007F070
:1020400008FB24B070BD0000F0B5044685B0204602
:10205000012107F0DDFA0546002800F0B382204692
:10206000012107F0ECFA94F8003153BBE02823D1AA
:102070000122207084F8002120E05D1C94F80121E9
:10208000E054EDB2AA4284F80051E0D1A0781C28B7
:1020900000F0E0811ED9502800F0678242D9622802
:1020A00000F08D8053D9802856D0C0F086829038B9
:1020B000012800F28282002384F8003184F8013183
:1020C000C5E7012BD9D10223607084F8010184F89F
:1020D0000031BCE708287ED00FD8022842D007D8AC
:1020E000E0B3012840F069822046FFF7BDF8E2E73F
:1020F00003283ED0042846D05FE2112800F0EC808F
:1021000006D80A2800F0BC80102800F0CB8054E2EA
:10211000182800F008811A2800F02281132840F0C6
:102120004C82EEE0202800F0B98106D81D2800F08E
:1021300037811E2800F0A0813FE2312800F0E481C1
:10214000402800F0F781302840F03782C1E1602854
:102150001DD0612827D030E2032521E22046FFF779
:10216000A1F9A8E79A1E2046E11CD2B2FFF7C0FDF4
:1021700005E09A1E2046E11CD2B2FFF7EDFE0146B3
:1021800008B120461BE22046FFF740F893E79A1E6D
:102190002046E11CD2B2FFF7A7F905460028F2D08D
:1021A00093489449F6E09A1E2046E11CD2B2FFF70C
:1021B000E3F905460028E6D08D488F49EAE09A1EEB
:1021C0002046E11CD2B2FFF70DFA05460028DAD00E
:1021D00087488A49DEE08A4E3278632A07D19A1E00
:1021E0008848E11CD2B206F005FF054600E0022552
:1021F0003378622B05D0A3F15E02012A01D95C2B52
:1022000008D194F801218048033AE11CD2B206F0CB
:1022100091FA05463378663B052B08D894F80121DE
:102220007A48033AE11CD2B205F098FB05463378B0
:102230005D2B08D194F801217548033AE11CD2B214
:1022400006F0BEFA054633785B2B08D194F80121DD
:102250007048033AE11CD2B200F064FE05463378C0
:10226000652B08D194F801216B48033AE11CD2B2E6
:1022700004F032F90546002D85D05D48674989E0B4
:102280005F4A127852B99A1E6548E11CD2B207F033
:1022900089FF054600283FF40EAF00E005255448AD
:1022A000604977E0604A127892B1554E3278012A3F
:1022B0000ED89A1E5D48E11CD2B202F0B5F8054670
:1022C00038B93378002B7FF4F6AE2046012144E084
:1022D0000225474856495DE0534A12786AB1484E94
:1022E0003278012A09D89A1E5048E11CD2B202F075
:1022F000C1F805460028E4D000E002253C484D49DD
:1023000048E0494B1B7853B13D4E3378012B06D83A
:10231000464802F0D5F805460028D2D000E0022554
:102320003348454936E0454A1278002A2FD0344ECA
:10233000327812F0FD0F2AD1414A12783AB39A1E30
:102340004048E11CD2B200F043FB054600BB3378A5
:10235000002B7FF4B0AE20460221FFF7E3FBAAE694
:10236000364A12789AB1264E327812F0FD0F0ED10D
:10237000334A1078E11C9A1E20B1D2B2314800F0E5
:1023800051FBE2E7D2B23048FDF7BAFFDDE70225A4
:1023900017482E492AB2FFF72BFE204629460EE1A8
:1023A000264B1B78002B00F04381042D40F0428126
:1023B000E17801290AD1124B1B78022B40F03B81B6
:1023C000234B1B78002B7FF476AE0CE0002940F005
:1023D00032810B4B1B78022B40F02D811C4B1B785C
:1023E000002B3FF468AE174800F095FB63E600BF92
:1023F0008C2F00200BDC000828DC000845DC0008DE
:10240000EC320020C0AF002094AF0020F06000202C
:1024100014A0002069640020AA0A002062DC0008E1
:10242000BC06002084DC0008B5020020401000201B
:1024300097DC0008B6DC0008D3DC0008B4020020FA
:10244000B0020020F0320020C4AF0020EFDC000812
:10245000686400207B4A127852B19A1E7A48E11CC7
:10246000D2B200F00DFB054600283FF424AE00E098
:102470000225764876498DE7724A127852B19A1E43
:102480007148E11CD2B200F02FFB054600283FF452
:1024900012AE00E002256D486E497BE76E4A127865
:1024A0009AB16E4E32780AB1032A0ED19A1E6C4848
:1024B000E11CD2B201F07EFE054638B93378002B1C
:1024C0007FF4F9AD2046032147E702255F486549BF
:1024D00060E7654A12789AB1604E327812F0FB0FCD
:1024E0000ED19A1E6148E11CD2B204F051F80546A3
:1024F00038B93378002B7FF4DEAD204604212CE779
:10250000022552485A4945E7574A127872B1534E4C
:10251000327812F0FB0F09D19A1E5448E11CD2B256
:1025200004F036F805460028E3D000E002254748CD
:1025300050492FE7504A12789AB1484E32780AB182
:10254000052A0ED19A1E4D48E11CD2B206F0B0FA0F
:10255000054638B93378002B7FF4ADAD2046052110
:10256000FBE602253948464914E7464A12789AB1F3
:102570003A4E32780AB1062A0ED19A1E4248E11C20
:10258000D2B2FEF79AFB054638B93378002B7FF4B8
:1025900092AD20460621E0E602252C483B49F9E6AB
:1025A00094F80131AB427FF686AD615D04F582702F
:1025B000013502F096FDEDB2F2E720460121FEF76B
:1025C0003BFE78E5324801F0FAF94BF67F3398424A
:1025D00004F5827784BF84F8005184F801513846AD
:1025E00002F05FFD0546C8B12046032107F01DF843
:1025F000A842B8BF85B20026B3B2AB420ED238466D
:1026000002F095FD04AA002302F8010D03210093B6
:102610002046012307F01DF80136EDE7204603218F
:1026200006F0F6FF58B12046032107F008F8F5E759
:10263000022500E00425054816492A46ABE605B008
:10264000F0BD00BFB4020020F03200208C2F00202B
:1026500009DD000827DD0008B3020020EC3200206D
:10266000189B002042DD0008B6020020DC33002069
:1026700066DD000882DD0008B2020020AC0A0020FE
:102680009BDD0008B7020020A0300020B6DD000866
:102690006C640020D3DD0008F0B51E4690F80231CE
:1026A000A5B073B3E0238DF80C30F3238DF80E3012
:1026B0000025EBB2EC1CCF5CE4B224AB0135234423
:1026C00017B103F8847CF4E7111203F8841C24A9E1
:1026D000631C51FA83F303F8842CA31C51FA83F38F
:1026E000321203F8842C231D033451FA84F401219F
:1026F00004F8846CDBB2009103AA8DF80D3006F06B
:10270000A8FF25B0F0BDF0B590F80241A5B0BDF925
:10271000A860002C3CD0E0248DF80C40F4248DF807
:102720000E400025EFB2EC1C11F807E0E4B224AF34
:1027300001352744BEF1000F02D007F884ECF1E721
:10274000111207F8841C24AD611C55FA81F101F8BF
:10275000842CA21C55FA82F2191202F8841CE21C85
:1027600055FA82F2012102F8843C231D55FA83F3C5
:10277000321203F8842CA31D053455FA84F4DBB21D
:1027800004F8846C03AA00918DF80D3006F061FF07
:1027900025B0F0BDF0B58C46A5B090F80211BDF99A
:1027A000A870BDF9AC60002948D0E0218DF80C106C
:1027B000F5218DF80E100025E9B2EC1C1CF801E0A3
:1027C000E4B224A901352144BEF1000F02D001F882
:1027D00084ECF1E7151201F8845C24AD611C55FA14
:1027E00081F101F8842CA21C55FA82F2191202F828
:1027F000841CE21C55FA82F2012102F8843C231D5C
:1028000055FA83F33A1203F8842C631D55FA83F3C7
:10281000321203F8847CA31D55FA83F303F8842C49
:1028200004F10803073455FA84F4DBB204F8846C2D
:1028300003AA00918DF80D3006F00BFF25B0F0BD16
:1028400000224FF480410280428081808271826048
:1028500002737047C9010180D201494241808280E0
:1028600070470000038830B50BB9084633E0827921
:1028700062B91BB2994205DB012383710023836097
:10288000037303E0B0F902308B42F5DA8379002B51
:10289000EBD08268B2F5166F13D8047B0F4DB0F9F8
:1028A0000430611C55F82440C9B263430B294FEA38
:1028B000E333017303F30F031BB203D90021017348
:1028C00000E00023013242F6DF618A42826084BF69
:1028D00000228271184600B230BD00BF48DE0008F9
:1028E0002DE9F0414FF4B971044602F0A6FB4FF414
:1028F000B97104F1100002F0A0FB0C2204F12000D9
:1029000000210AF010FA04F12C0600220023B35231
:102910000232202AFAD184F84C3004F14D01002211
:10292000CA540133212BFAD184F86E2004F16F07C9
:102930000023BB5401320C2AFAD104F17B08002297
:1029400008F8032001330C2BF9D104F1870100238F
:102950008B540132282AFAD104F1AF020025D55454
:102960000133282BFAD12946A4F8D850A4F8DA501C
:10297000C4F8DC50C4F8E050C4F8E45084F8E850DF
:1029800084F8E950304620220AF0CDF9052384F876
:102990002030092363840C4B6362A66240460B49D6
:1029A0000C220AF0B7F9384608490C220AF0B2F9AD
:1029B00084F8E85084F8E950C4F8E050C4F8E450D2
:1029C0002046BDE8F08100BF6A000020BCDE0008A0
:1029D000222A70B504460E461CD102F040FB202886
:1029E0001AD994F8E8302BB1204602F033FB0023CB
:1029F00084F8E8300025731920465978013502F033
:102A000070FB212DF7D1064B187838B9012384F8D3
:102A10004C3070BD042070BD052070BD002070BD1D
:102A200068640020222AF8B504460F461FD100F141
:102A30001006304602F013FB20281AD994F8E9302A
:102A40002BB1304602F006FB002384F8E930002564
:102A50007B1930465978013502F043FB212DF7D11F
:102A6000064B187838B9012384F84C30F8BD04209F
:102A7000F8BD0520F8BD0020F8BD00BF6864002047
:102A8000092A70B504460E4627D17B3000210C225E
:102A90000AF049F90023124A12489D5CD91003F04C
:102AA0000702715C825C11424FEAE50205F00705FE
:102AB00005D0A118405D91F87B10084305E0A118EE
:102AC000405D91F87B1021EA000022440133442B41
:102AD00082F87B00DFD1002070BD042070BD00BFF4
:102AE00078DE0008E9DE0008012A12D10B78012BFC
:102AF00008D0022B0DD10023C0F8E43080F8E92083
:102B0000184670470022C0F8E02080F8E8301046F0
:102B1000704704207047002380F84C10C0F8DC3068
:102B2000C0F8E030C0F8E43080F8E83080F8E930F0
:102B3000704700290CBF0023052380F84C307047F4
:102B4000F0B5002395B00646174601F0C005802D6C
:102B500003AC08D0C02D03D045B94FF63A6207E068
:102B600040F2525204E04FF4E37201E04FF6AE221D
:102B7000E25202338900082BC9B2E6D105AD2846DE
:102B8000002114220AF0CFF806F1200021460AAAFB
:102B900004238DF81E7009F091FB00950348022173
:102BA0000AAA142300F09EFB15B0F0BD6C6400204F
:102BB00008B502F054FA2323B0FBF3F0C0B208BD0D
:102BC00008B5103002F04BFA2323B0FBF3F0C0B28B
:102BD00008BDF8B500EB0117044638460D4602F073
:102BE00060FA20281FD9D4F8DC30132B1BD905F14B
:102BF000380354F82330052B15D9254600263846CE
:102C000002F095FA01360023212E85F8AF0085F8F1
:102C1000873005F10105F2D12123A4F8D830002333
:102C2000A4F8DA30F8BD2544002285F8E8202346D0
:102C300093F84D1083F8AF1001320021212A83F858
:102C4000871003F10103F3D1E6E700001C4B1B786A
:102C5000622B0ED1024600235F21013382F8AF10B0
:102C6000212B4FF0000182F8871002F10102F3D10D
:102C700020E05F2B20D1034600225521013283F84A
:102C8000AF10072A4FF0000183F8871003F101030A
:102C9000F3D15F2380F8B63002460823FF210133C9
:102CA00082F8B7100F2B4FF0000182F88F1002F15D
:102CB0000102F3D1A0F8D8300023A0F8DA30704731
:102CC000EC320020F8B5D0F8DC300133C0F8DC304D
:102CD000D0F8E0300133C0F8E030D0F8E430013310
:102CE000C0F8E43090F86E300B2B84BF002380F8DE
:102CF0006E3090F86E3004460F46154693B902F0D8
:102D0000D0F904F16F0638B904F1100002F0C9F9E6
:102D100010B93046344902E0304604F17B010C2200
:102D200009F0F8FF94F86E10214404F1AF006F3100
:102D3000032209F0EFFF012D14BF0423082384F8B8
:102D40008930D4F8DC300020132B84F8870084F815
:102D5000880006D904EB051002F0A3F9003018BF73
:102D600001207B1E5942594194F86E302BB1B3F1CA
:102D7000090218BF0122012501E01D46012294F835
:102D8000AFC080EA01064CEAC01085EA010740EABC
:102D9000C101002D84F8AF1094F8B0100CBF0020D2
:102DA0008020014341EAC201AE4214BF0225002542
:102DB00094F8B1000D43974214BF20210021014334
:102DC000964214BF0226002641EA060284F8B1208A
:102DD00003330322A4F8D82084F8B050002284F8EA
:102DE0006E30A4F8DA20F8BDBCDE000838B590F8E3
:102DF0004C300446002B48D0B0F8D8200ABB013B29
:102E0000042B17D8DFE803F003160E081300002187
:102E1000FFF7DFFE042312E001210022FFF752FF3B
:102E200003230CE00121FFF7D4FE022307E0FFF7A4
:102E30000DFF06E000210122FFF744FF012384F883
:102E40004C30B4F8D83003B3104800F0A9FA054666
:102E5000142D1AD9B4F8DA30E218013392F8AF1011
:102E600092F88720A4F8DA302046FFF769FEB4F81C
:102E7000DA20B4F8D830143D9A42ADB2E8D300233A
:102E8000A4F8DA30A4F8D83038BD38BD6C6400201E
:102E900037B500F14D040D4621220749204609F0BF
:102EA00039FF01A805F033FD01A829460922234670
:102EB00005F080FD03B030BDC8DE000802F0CAB8DE
:102EC000103002F0C7B8D0F8DC0070470022027062
:102ED000427082707047000010B504460F4805F03C
:102EE00055FE0E4805F0EFFEB0B16378012B10D10E
:102EF0000B4BA1780948312202FB013105F0D8FDC6
:102F0000A378013303F00303A370237823B963701C
:102F100010BD00236370A37010BD00BFAC0A002079
:102F2000F1DE0008012A034609D10878411E484213
:102F30004841187030B1587818B95A707047042059
:102F400070470020704700220260426070471823DB
:102F5000534345F6C05202FB0131016070470068DF
:102F60001823B0FBF3F0704703680BB101234360F3
:102F7000704700234360704743681BB102680AB181
:102F80000B44436070474068003018BF0120704711
:102F9000026832B1436833B1934294BF00200120EC
:102FA0007047104670471846704770B504460625AE
:102FB000002686F0010620463146FDF745FC2046F6
:102FC0003146FDF751FC20463146FDF755FC2046C1
:102FD0003146FDF759FC20463146FDF75DFC2046A1
:102FE0003146FDF761FC20463146FDF765FC204681
:102FF0003146FDF769FC013D2046FA21FDF77EFCD4
:1030000015F0FF05D5D120462946FDF735FC2046B1
:103010002946FDF739FC20462946FDF73DFC2046B0
:103020002946FDF741FC20462946FDF745FC204690
:103030002946FDF749FC20460121FDF71DFC2046ED
:10304000FA21FDF75BFC20460121FDF71DFC20461F
:10305000FA21FDF753FC20460121FDF71DFC204617
:10306000FA21FDF74BFC20460121FDF71DFC20460F
:10307000FA21FDF743FC20460121FDF71DFC204607
:10308000FA21FDF73BFC20460121FDF71DFC2046FF
:10309000FA21FDF733FC20462946FDF715FC2046B2
:1030A000FA21FDF72BFC20462946FDF705FC2046BA
:1030B000FA21FDF723FC20462946FDF7F5FB2046C3
:1030C000FA21FDF71BFC20462946FDF7E5FB2046CB
:1030D000FA21FDF713FC20462946FDF7D5FB2046D3
:1030E000FA21FDF70BFC20462946BDE87040FDF7AC
:1030F000C3BB00002DE9F04F0025044685B04FF416
:10310000167100F8045BFDF7C5FC4FF4FA7104F189
:103110001800FDF7BFFC4FF4167104F12C0003F00A
:1031200084FB04F13C002946102209F0FCFD04F167
:103130004C030393E56425656565A565A4F85C50BB
:1031400025666566A4F86850E5662567A4F874509E
:10315000A567E567A4F88050C4F88450C4F8885087
:10316000A4F88C50C4F89050C4F8945004F198031B
:1031700000225A5302358C2DFAD104F5927B00219E
:103180002BF802100232502AF9D104F5BA7A002243
:103190002AF8012002313C29F9D104F5D87900261A
:1031A00029F802600232DC2AF9D104F523780025DF
:1031B00028F806500236782EF9D14FF480424FF0AD
:1031C000010CA4F80623A4F80823A4F80A23A4F801
:1031D0000C23A4F80E23A4F81023A4F81223A4F8B7
:1031E0001423A4F816234FF4006284F824C318466D
:1031F000A4F81823A4F81A23294684F8045384F861
:103200001C53C4F8205384F82553A4F82653A4F87B
:103210002853C4F82C5384F830538C220293CDF8F1
:1032200004C009F080FD29465846502209F07BFD74
:10323000294650463C2209F076FD29464846DC22C4
:1032400009F071FD29463246404609F06CFD2946D9
:103250000398102209F067FD029B23661B4B6366EF
:103260000C23A4F868301A4B23670623A4F87430A3
:10327000184BE3675223039AA4F88030164B22645C
:10328000C4F88830154ADDF804C0626420232A227D
:10329000A4F88C30124BC4F83CC0A4F85C20C4F8ED
:1032A0009430204684F84850C4F86CB0C4F878A034
:1032B000C4F88490C4F89080FDF7E0F82046FFF74A
:1032C00074FE204605B0BDE8F08F00BFE401002089
:1032D000C4000020D8010020DC000020C001002034
:1032E000800100202DE9F84398460378089F0446A2
:1032F0000E469146002B4FD090F83033002B4BD127
:10330000264D2B7833B990F80413012359402B70C4
:10331000FDF7A2FA711E09291BD8DFE801F00508A4
:103320000B0E11141A1A1A17B4F80A5313E0B4F852
:103330000C5310E0B4F80E530DE0B4F810530AE04B
:10334000B4F8125307E0B4F8145304E0B4F8165379
:1033500001E0B4F808530026B3B243451CD239F853
:103360001610B4F81A3311FB05F1C91301F30F015C
:10337000194489B2B1F5805F04D3B4F8283301331E
:10338000A4F8283304F118000FB93A4600E0BA5DFA
:10339000FDF7D5FB0136DFE7BDE8F8836864002060
:1033A0001830FDF78ABB000038B5054B1A788A4201
:1033B0000C461D4601D0FDF757FA2C7038BD00BFF2
:1033C000ED32002080F82513704700002D4A137855
:1033D000994270B504460D46164651D0013B092B63
:1033E00021D8DFE803F005090D1115192020201D53
:1033F0000021FDF741FA16E00021FDF745FA12E041
:103400000021FDF749FA0EE00021FDF74DFA0AE030
:103410000021FDF751FA06E00021FDF755FA02E020
:103420000021FDF759FA6B1E092B28D8DFE803F0BD
:10343000050A0F14191E2727272320460121FDF70F
:103440001BFA1CE020460121FDF71EFA17E020467A
:103450000121FDF721FA12E020460121FDF724FAAF
:103460000DE020460121FDF727FA08E02046012162
:10347000FDF72AFA03E020460121FDF72DFA357009
:1034800070BD00BFEC32002038B5057804464DB958
:10349000FDF7DEF80123237020462946BDE83840B9
:1034A000FFF794BF38BD00002DE9F041D0F820238C
:1034B000037801328CB00446C0F820236BB3D0F8F7
:1034C0002C234BF67F339A4214D9A64B1B785A1EF5
:1034D000052A0CD8022B06D1A34B1B781BB1A3489D
:1034E0000021FFF718FB20460021FFF76FFF0023A4
:1034F000C4F82C33D4F8203345F6BF5293421BD97D
:1035000094F82413002381F00101C4F8203384F8D7
:1035100024132046FDF798F90EE095498A4240F2BF
:10352000BB8190F82413C0F8203381F0010180F8AA
:103530002413FDF789F9AFE194F81C3323B1204639
:10354000FDF776F984F8300304F11800FDF7D7FA97
:1035500020B9854B1A78002A40F09781271D3846FC
:10356000FDF7CDFA012840F29781002502AA0AA9A9
:103570002A443846FDF70AFB4FEA450804A904F13E
:103580002C00414403F0C4F994F825335BB1BDF835
:1035900028301BB140F6FF72934204D1B4F82633B1
:1035A0000133A4F82633BDF82820B4F81833D31A11
:1035B000B4F8062303AE013513FB02F3022D4FEAE4
:1035C000E33303F30F0328F80630CFD194F83033F8
:1035D000002B40F06181304608A92A4608F03EFEE3
:1035E0000AAA2B4604F13C0008A909F0BFF90A9A7F
:1035F0000B9B134493FBF5F3BDF80C201B1403F352
:103600000F039BB2D21AADF81420BDF80E20D31AC6
:10361000ADF81630534B1B78002B6AD1554B1B78F5
:1036200063B104F1680005A907AA2B4609F042F826
:10363000514807A904AA2B4604F002FE4F4B1B7801
:1036400063B104F1740005A907AA022309F032F856
:103650004B4807A904AA022306F0F6FC494B1B7845
:103660009BB104F1800005A906AA022309F022F803
:1036700004F18C0006A907AA022309F01BF84248AE
:1036800007A904AA022302F087F8404B404D1A789C
:103690001F460AB92B78FBB1022304F15C003146C6
:1036A00007AA09F007F82B782BB13A4807A904AA12
:1036B000022304F07FF83B7873B1374B1B782BB1B2
:1036C000364807A9022201F08DFA05E0344807A91F
:1036D00004AA022303F0F8FC324B1B78002B00F005
:1036E000DB802046FDF7A4F805AA014602232E48F8
:1036F000B1E0012B12D11F4B1B78002B00F0CC80C6
:1037000004F1680005A907AA2B4608F0D3FF1A4860
:1037100007A904AA2B4604F093FDBDE0022B4ED16D
:103720001A4B1B78002B00F0B7802B4604F15C008D
:10373000314607AA08F0BEFF174B1B78002B37D085
:10374000094B1B783BB10095184807A904AA02ABA6
:1037500004F0CCFDA0E0114807A92A4601F042FA86
:103760009AE000BFEC32002068640020F0320020B4
:103770007FA90300B502002000610020B6020020EE
:10378000AC3E0020B202002018A00020B4020020AD
:10379000B3020020A0670020B00200205C390020A6
:1037A000207B0020B1020020E0910020E4120020E4
:1037B0003B4807A904AA2B4603F086FC6CE0032BC8
:1037C00011D1384B1B78002B66D004F15C0005A9A1
:1037D00007AA2B4608F06EFF334807A904AA2B4618
:1037E00003F0E8FF58E0042B11D1304B1B78002B7D
:1037F00052D004F1740005A907AA2B4608F05AFF1D
:103800002B4807A904AA2B4606F01EFC44E0052B12
:1038100018D1284B1B78002B3ED004F1800005A95D
:1038200006AA2B4608F046FF04F18C0006A907AA59
:103830002B4608F03FFF204807A904AA2B4601F0B9
:10384000ABFF29E00A2B09D12046FCF7F1FF014626
:103850001A4805AA2B4602F005FD1DE0632B0CD18A
:1038600004F16800314607AA022308F023FF144838
:1038700007A9022201F0B2FB0EE0602B0CD1114827
:1038800004A9022205F036FA06E0187094F8041331
:103890002046FCF7E1FF61E60CB0BDE8F08100BF17
:1038A000207B0020B3020020A0670020B602002089
:1038B000AC3E0020B202002018A00020E0910020C1
:1038C000E07A0020E03200202DE9F0439DF83C90A2
:1038D00080F804334FEAC919A0F81693BDF9449053
:1038E0009DF820309DF81C809DF824C09DF828701C
:1038F0009DF82C609DF830509DF8344009F5006922
:10390000DB01A0F81893BDF94090A0F808339DF8AA
:10391000383009F500694FEAC8184FEACC1CFF019E
:10392000F601ED01E401DB01A0F81A939DF848903F
:10393000A0F80683A0F80AC3A0F80C73A0F80E63E1
:10394000A0F81053A0F81243A0F8143380F81C9389
:1039500019B1C8F10008A0F8068392B1CCF1000CAF
:103960007F4276426D4264425B42A0F80AC3A0F8EF
:103970000C73A0F80E63A0F81053A0F81243A0F83F
:103980001433BDE8F083B0F82633003318BF0123A9
:103990000B70B0F82833003318BF012313700023D5
:1039A000A0F82633A0F8283370471830FDF714B973
:1039B0000430FDF711B90023C0F82C337047D0F85C
:1039C0002C03704790F830037047024610B502F898
:1039D000041B00230021D1500433142BFAD100F131
:1039E0001804002363520231B1F5E16FF9D142F2BC
:1039F0000F71A0F82037A0F82237A0F82437A0F8DC
:103A00002637A0F82817A0F82A37C0F82C37A0F8D6
:103A10003037A0F83237A0F83437A0F83637A0F89E
:103A20003837A0F83A37A0F83C37A0F83E3780F88E
:103A3000403780F8413780F8423780F84337A0F8A4
:103A4000443780F8463780F8473780F8483700F227
:103A50004A720021D1520233B3F5E16FF9D110BDA2
:103A60000023A0F82237A0F82A37A0F82037C0F8A2
:103A70002C3780F8413770470023A0F82437A0F88E
:103A80002237A0F82A37A0F82037C0F82C3780F862
:103A9000413780F8423780F84637A0F8263742F29F
:103AA0000F73A0F8283770472DE9F047BDF8204084
:103AB000BDF924A0BDF9289002EB820204F1020CAA
:103AC0000A4401341FFA8CFCA4B292B2ACF1020792
:103AD0009142BFB245D001F10C05FE1030F81580BF
:103AE000CAEB0808C9F100050FFA88F8A84507F0E5
:103AF00007071D4D07DA15F807809F5D27EA0807BD
:103B00009F55E6101DE0B8F1000F07DA15F80780A1
:103B10009F5D27EA08079F55E61009E0C845EF5D5D
:103B200013F8068048EA07079F554FEAE40608DACB
:103B300004F00707EF5D35469E5D26EA07065E55F1
:103B400006E004F007089F5D15F808503D439D55B9
:103B500005310CF1020C023489B21FFA8CFCA4B2BC
:103B6000B4E7BDE8F08700BF66E10008B0F8203791
:103B70002DE9F04F00EB830304465B68844823F093
:103B80007F4389B05840894602F04CFC0228A0F1DE
:103B90000300C0B28CBF4FF000084FF0010812289C
:103BA00040F2F280B4F82237A3F1730189B20533F1
:103BB00000221FFA83FA08464CF280164FF47A5717
:103BC000154600F10C0336B234F913303FB29E4271
:103BD000B8BF1E469F42A8BF1F46B6B2BFB2B8F1DB
:103BE000000F02D0DFF8B4C101E0DFF8B4C112F871
:103BF0000CC04FFA8CFCBCF1010F0AD0BCF1030FD2
:103C000005D0BCF1FF3F06D003EB430303E003EB19
:103C10004303ED1A00E01D44053080B2504502F127
:103C20000102CED1D4F82C379D4240F3AD8036B29C
:103C300006FA87F77B10F61A44F631425643C6F36C
:103C4000CF36042201930DF1180A9FB233B20092CD
:103C50000293204618225346FFF726FFDFF844B1AF
:103C6000B8F1000F42D04FF0000843461AF8082080
:103C70001BF8080005931040464A18F802205040EF
:103C800002F0CAFB059B08F101081844B8F1070FC0
:103C9000C3B2EBD1032B77D8B9F1000F11D0A4F840
:103CA0003E67A4F83C67A4F83A67A4F83867A4F81C
:103CB0003677A4F83477A4F83277A4F83077002365
:103CC0000BE094F8403704EB43020133DBB2032BE3
:103CD000A2F83867A2F8307702D884F8403701E0BC
:103CE00084F84097C4F82C5740233FE043461AF825
:103CF00008201BF8080005931040274A18F80220F6
:103D0000504002F089FB059B08F101081844B8F106
:103D1000070FC3B2EBD1032B36D8B9F1000F11D086
:103D2000A4F83E67A4F83C67A4F83A67A4F838679B
:103D3000A4F83677A4F83477A4F83277A4F830776B
:103D400000230BE094F8403704EB43020133DBB26D
:103D5000032BA2F83867A2F8307702D884F84037EE
:103D600001E084F84097C4F82C57202384F84137A9
:103D7000B4F82237A4F82437A3F5C37203F20D1365
:103D8000A4F82627A4F8283709B0BDE8F08F00BFB3
:103D90006E287600C3DF0008BCDF00086EE1000873
:103DA0004EE10008B5DF000880F843177047A0F81F
:103DB000441770470A46B0F82617034601F13C0045
:103DC00001F5167130B580B28DB20021441C03EBB1
:103DD0004000A4B2B0F84A07AC42014401D02046EA
:103DE000F4E74FF40770B1FBF0F1C1F3072082F85C
:103DF000220082F82310197802482423BDE83040BD
:103E0000FDF7BCBC8C2F0020B0F82A37F0B5013389
:103E10009BB20446A0F82A37B0F8440798428FB006
:103E200000F27681B4F82237B4F828079842C0F03F
:103E30006F81B3F5617F80F06B8104EB4300002953
:103E40000183A0F84A27B4F8202704EB82025068C7
:103E50004FEA4000B8BF40F00100506094F8462798
:103E600032B9A3F5C8735A2B10D8204601210BE0B4
:103E7000B4F82427511E89B28B4207D3013292B283
:103E8000934203D820460021FFF770FEB4F8223792
:103E9000B4F82817994240F02D81B4F93237B4F9BB
:103EA0003077B4F938671F44B4F934371F44B4F994
:103EB00036371F44B4F93A371E44B4F93C371E4430
:103EC000B4F93E370EAD1E4494F8413705F8243D51
:103ED000A1F28E21082347F38F0746F38F06009344
:103EE00001972B460296204689B28422FFF7DCFD1B
:103EF00094F84137402B40F0A28004A804F007FD5D
:103F00000DF112020DF1130304A80DF1150104F0D7
:103F10002BFD9DF8122094F843379A4240F0EA8036
:103F200000239DF8142084F8423784F847379DF821
:103F300013301A438DF814200A2B67D8DFE803F0FA
:103F4000403759666666061C1C661C002378744858
:103F500074490097002B14BF02220122B4F92437C0
:103F60000196FEF717FC20462946FFF723FF0223A0
:103F700084F84637002317E094F84637022B40F0C8
:103F8000B9802378664868490097002B14BF022245
:103F90000122B4F924370196FEF7FCFB204629469E
:103FA000FFF708FF9DF8133084F84837A2E0237824
:103FB0000097002B0196B4F9243759485B490BE070
:103FC00094F84637012B10D123785548584900976B
:103FD000002BB4F92437019614BF02220122FEF708
:103FE000D9FB20462946FFF7E5FE012384F8463732
:103FF00080E094F84637012B7CD123780097002B82
:104000000196B4F9243746484A4907E023784448E2
:1040100049490097002BB4F92437019614BF0222B6
:104020000122FEF7B7FB20462946FFF7C3FE002317
:1040300084F8463742F20F73A4F828375AE0202B51
:1040400019D1237836483D490097002B14BF02222E
:104050000122B4F924370196FEF79CFB204629463D
:10406000FFF7A8FE012384F84637002384F842377F
:1040700084F847373EE094F8463793B194F84237D6
:104080000133DBB20C2B84F842370AD9244821785B
:10409000FDF7A4FB002384F8463742F20F73A4F81F
:1040A000283794F84637012B17D194F84737042B5B
:1040B00006D920238DF81430002384F8473705E013
:1040C0000133DBB284F847378DF814301448217877
:1040D0002A462223FDF752FB0CE0022B0AD194F86A
:1040E00048373BB143F04003204629468DF8143051
:1040F000FFF760FEB4F822370133A4F82237B4F892
:10410000203701339BB2042B88BF0023A4F820374B
:1041100094F84607003018BF01200FB0F0BD00BF73
:104120008C2F0020CADF000801E0000839E00008F9
:1041300071E00008ACE00008E8E0000818E10008C1
:1041400038B54FF47A61044600F077FF0C2204F191
:104150001000002108F0E7FD04F11C0500220023F7
:10416000AB520232202AFAD104F13C020021D15490
:104170000133B3F5966FF9D1F023A4F8F0344FF47E
:104180009653C4F8F434A4F8EC14A4F8EE1484F8AC
:10419000F214C4F8F8142846202208F0C4FD0523C0
:1041A000237409236382024B6361A561204638BDF5
:1041B00038020020792A70B505460E460DD100F070
:1041C0004EFF77280BD9002433192846597801343B
:1041D00000F087FF782CF7D103E0042070BD0520A4
:1041E00070BD002070BD000070B500238EB001F0DE
:1041F000C005802D90F8F24402AA0ED0C02D05D043
:1042000095B94FF6C4654FF6895611E0002C40F27F
:10421000657418BF4FF46D740EE0002C40F27724E3
:1042200018BF4FF49E7407E04FF64C454FF69B06BF
:10423000002C0CBF34462C46D45202338900082B84
:10424000C9B2D4D11146103004AA042308F036F8BC
:10425000002300930348032104AA1423FFF742F824
:104260000EB070BD6C64002010B58EB0002402A9A1
:1042700004AA103004230294039408F01FF8009459
:104280000348032104AA1423FFF72CF80EB010BD35
:104290006C64002038B5B0F8EC340446CBB900F0BB
:1042A00000FFB0B1344B1B78002B53D0782520464B
:1042B00000F03DFFB4F8EC34013D5A1C234415F0E6
:1042C000FF05A4F8EC2483F83C00F0D10023A4F807
:1042D000EE34B4F8EC3433B32848FFF761F8054600
:1042E000142D1FD9B4F8EE345A1C2344A4F8EE243C
:1042F00093F83C102046FFF777FF214B1B78143DC5
:10430000ADB21BB1D4F8F434C4F8F834B4F8EE24E8
:10431000B4F8EC349A42E3D30023A4F8EE34A4F8C2
:10432000EC3438BD38BDD4F8F8341BB31348FFF76C
:1043300037F80546142D0CD92046FFF795FFD4F821
:10434000F834143D013BADB2C4F8F834002BF1D180
:1043500010E038BDB4F8F0149AB28A42B6D2B4F87C
:10436000EC24501C2244A4F8EC04772082F83C0092
:104370000133F1E738BD00BF686400206C640020A1
:10438000B002002001EB4101890001F51671B1F581
:10439000966F8ABF4FF49663A0F8F014A0F8F0343B
:1043A000704708B500F05BFE7823B0FBF3F0C0B2B5
:1043B00008BD4FF496635A4380F8F214C0F8F42411
:1043C0007047000038B54FF4B971044600F035FE6F
:1043D0000C2204F11000002108F0A5FC04F11C05DA
:1043E00000220023AB520232282AFAD104F14402FF
:1043F0000021D1540133B3F5167FF9D13C23A4F841
:10440000A032A4F89C12A4F89E122846282208F094
:104410008AFC0523237403236382024B6361A56135
:10442000204638BD92020020292A70B505460E4666
:1044300018D100F014FE2928024606D80B480C4972
:1044400012B2FDF7D5FD052070BD2846002100F011
:1044500048FE0024315D2846013400F042FE292C3C
:10446000F8D101E0042070BD002070BD8C2F002029
:10447000AEE600080C2A70B505460E4618D100F0CD
:10448000EEFD0C28024606D80B480C4912B2FDF787
:10449000AFFD052070BD2846012100F022FE00245A
:1044A000315D2846013400F01CFE0C2CF8D101E0EF
:1044B000042070BD002070BD8C2F0020CEE60008C7
:1044C00010B5044600F0CBFD024628B90548064960
:1044D000FDF78EFD052010BD2046022100F001FEF3
:1044E000002010BD8C2F0020ECE600082DE9F047DD
:1044F000002096B001AC002303551354013053281B
:10450000F8D118461C4611F8038007461D012046C5
:1045100000260124B44018EA040F0CBF0024012433
:1045200004EB070C07442744FF070CF0010C0FD5E0
:1045300005F00707DFF8509119F807A00DF15809A9
:1045400009EBD50717F8549C4AEA090907F8549C67
:10455000BCF1000F11D005F1010C0DF1580909EB68
:10456000DC070CF0070CDFF8209119F80C9017F815
:1045700054CC49EA0C0C07F854CC0136082E05F14E
:10458000020502D007462046C3E701332A2BBAD1E1
:104590003B4B002016AC04EBD00111F8541C0C0668
:1045A00009D513F80E4C13F80D5C012606FA05F533
:1045B000165D354315554F0609D513F80C4C13F805
:1045C0000B5C012606FA05F5165D354315558E067A
:1045D00009D513F80A4C13F8095C012606FA05F50B
:1045E000165D35431555CD0609D513F8084C13F85B
:1045F000075C012606FA05F5165D35431555B0F53D
:10460000247F30D00C0709D513F8064C13F8055C4D
:10461000012606FA05F5165D354315554F0709D5F0
:1046200013F8044C13F8035C012606FA05F5165D31
:10463000354315558E0709D513F8024C13F8015C64
:10464000012606FA05F5165D35431555CD0707D544
:1046500019785C78012505FA04F4555C2C43545410
:104660000830103396E700230649585CD15C41407E
:10467000D1540133532BF7D116B0BDE8F08700BFFA
:1046800094E100081DE7000809E7000830B50023A1
:104690009BB00C46012202EA0401914202A90CBF20
:1046A0004FF6B74540F24935CD5202335200102B38
:1046B000D2B2F0D106AA1030082307F0FFFD002384
:1046C00000930448012106AA2823FEF70BFE1BB025
:1046D00030BD00BF6C64002070B5A2B0044600F08D
:1046E000E0FC20B9B4F89C32002B00F09A80204600
:1046F00000F018FDB4F89C5200283BD1002D6FD17A
:10470000494B1B787BB9B4F8A0129AB28A4264D2A2
:10471000B4F89C22501C2244A4F89C02AA2082F8DF
:1047200044000133F1E7204600F001FD204600F08F
:10473000FEFC01A948550135292DF7D10DF13202B2
:104740002046FFF7D3FEEA238DF83030B4F89C22E0
:10475000A6238DF8313000230CA8D118185C14FA68
:1047600081F10133552B81F84400F5D15532A4F87D
:104770009C2232E0012814D195BB204600F0D7FCE2
:104780000C25B4F89C62731CA4F89C32204600F0FF
:10479000CEFC2644013D15F0FF0586F84400F0D11B
:1047A0001BE002281CD1DDB9204600F0C0FCB4F8A3
:1047B0009C3203F1120189B200221C4D9818555DFC
:1047C00014FA80F00132062A80F84450F5D10633FD
:1047D0009BB28B42F0D1A4F89C320023A4F89E3205
:1047E000B4F89C32EBB11248FEF7DAFD0546282DED
:1047F00017D9B4F89E325A1C2344A4F89E2293F889
:1048000044102046FFF742FFB4F89E22B4F89C32D1
:10481000283D9A42ADB2EAD30023A4F89E32A4F810
:104820009C3222B070BD00BF6864002011E7000810
:104830006C64002001EB4101490001F59671B1F56E
:10484000167F8ABF4FF41673A0F8A012A0F8A0320A
:10485000704708B500F003FC0D23B0FBF3F0C0B2C5
:1048600008BD10B500230022C2500433142BFAD126
:1048700000F114040023A3520232B2F5A56FF9D15E
:1048800042F20F72A0F83C35A0F83E35A0F8402562
:10489000C0F84435A0F84835A0F84A3580F84C35C2
:1048A00010BD0023A0F83E35A0F83C35C0F84435D3
:1048B000A0F84A35A0F8483542F20F73A0F8403509
:1048C000704700002DE9F047BDF82050BDF9248065
:1048D000BDF928C005EB4202AE1C6C1C02F1020AB5
:1048E000B6B2A4B21FFA8AFAB71E5645BFB24AD072
:1048F00000EB4102FD10B2F81490C8EB0909CCF1AD
:1049000000020FFA89F9914507F007071F4A07DAF5
:1049100012F807905F5D27EA09075F55E5101DE073
:10492000B9F1000F07DA12F807905F5D27EA09076F
:104930005F55E51009E0E145D75D13F8059049EAB8
:1049400007075F554FEAE40508DA04F00707D75D6B
:104950002A465D5D25EA07059D5406E004F0070937
:104960005F5D12F809203A435A554A1D92B2B2F5DA
:10497000257F24BFA1F28F218AB202360234B6B25B
:10498000A4B21146B0E7BDE8F08700BFB2E7000867
:104990002DE9F04FB0F83C3550F8232000294FEABC
:1049A0004202B8BF42F0010240F82320B0F83E2591
:1049B00000EB42020446918250F82330834823F0F2
:1049C0007F4391B0584001F02DFD022800F2A580F0
:1049D000B4F83E6506F2212189B2B1F5257F28BFE2
:1049E000A6F173024FF000002CBF92B20A464FF4BA
:1049F0007A5C4CF28017054604EB4203DFF8E08155
:104A0000B3F9143010F908803FB20FFA8CFC9F42C2
:104A1000B8BF1F469C45A8BF9C46B8F1010FBFB266
:104A20001FFA8CFC0AD0B8F1030F05D0B8F1FF3F94
:104A300006D003EB430303E003EB4303ED1A00E06E
:104A40001D44531D9BB2B3F5257F28BFA2F28F22D0
:104A500000F1010028BF93B2182801D01A46CBE715
:104A6000D4F844359D4258DD3FB207FA8CFC4FEA3A
:104A70006C0C1FFA8CF8CCEB070744F6314C0CFB9E
:104A800007F7B1F5257FC7F3CF3728BFA6F173012C
:104A90004FF004030DF11C0B0FFA88FA0FFA87F997
:104AA000009328BF89B25B46CDF804A0CDF80890EA
:104AB000204618220026FFF705FF3346444AB05C23
:104AC0001BF8062005931040424AB25C504001F0AA
:104AD000A3FC059B01361844072EC3B2EED1032B6D
:104AE0001BD852464B463C483C49FDF7D5FDB4F82F
:104AF0003E35C4F8445503F20D1292B2B2F5257F4B
:104B000024BF6FF4C3729B18A4F84885A4F84A75B3
:104B100034BFA4F84025A4F84035B4F83E25B4F8D5
:104B2000403593423CD1991D89B2B1F5257F28BF0C
:104B3000A3F28E214FF008030093B4F94835019396
:104B4000B4F94A35029328BF89B2842207AB2046C4
:104B5000FFF7B8FE06A803F0DAFE0DF11A020DF118
:104B60001B0306A80DF11D0103F0FEFE9DF81A209F
:104B700094F84C359A420CD19DF81B30032B08D188
:104B8000C3238DF81C301448002107AA2223FCF708
:104B9000F5FD42F20F73A4F840350023C4F8443504
:104BA000B4F83E3501339BB2B3F5257F28BF00230F
:104BB000A4F83E35B4F83C3501339BB2042B88BFD2
:104BC0000023A4F83C3511B0BDE8F08F6E287600C4
:104BD00078E700087FE700088C2F002086E70008B0
:104BE000BAE7000870B58C1E054604EB4206B442D5
:104BF00005D0284634F9021FFFF7CAFEF7E770BD5B
:104C000080F84C15704700000148FCF713BD00BF49
:104C10008C2F002010B54348434CFDF715FA43484C
:104C2000FEF742FC424B1B782BB12378012B02D1BB
:104C30004048FFF751FD404B1B7863B12378022BAE
:104C400009D13E4B1B781BB13D48FEF7CFF802E07F
:104C50003C48FBF79DFB3C4B1B782BB12378032B87
:104C600002D13A48FFF716FB394B1B782BB123785A
:104C7000042B02D1374801F003FD374B1B782BB1D1
:104C80002378052B02D1354803F080FF344B1B7885
:104C90003BB12378062B3FD03248FCF705F80028BB
:104CA0003AD1314B1B782BB123780A2B02D12F48F4
:104CB00000F0DAFD2378632B02D12D4804F060F870
:104CC0002378622B05D0A3F15E02012A01D95C2B67
:104CD00002D1284803F006FD23785D2B02D1264837
:104CE00003F046FD23785B2B02D12448FEF7F4F84D
:104CF0002378652B02D1224801F0DAFB2378663B4A
:104D0000052B02D81F4802F0ABFD237843B91E489B
:104D1000BDE8104005F0FCB91248FCF717F8C0E7F1
:104D200010BD00BF8C2F0020EC3200206C640020EE
:104D3000B502002040100020B4020020B002002084
:104D4000F0320020C4AF0020B3020020189B0020E6
:104D5000B6020020DC330020B2020020AC0A0020A2
:104D6000B7020020A0300020B1020020E091002016
:104D7000C0AF002094AF002014A000206964002080
:104D8000AA0A0020F0600020BC06002008B5FFF74A
:104D90003BFFFFF73FFFFCE708B5284802F0E9FDBD
:104DA0002748FFF70FFB2748FFF75BFD264803F076
:104DB00090FA2648FDF794FD254801F0CEFD2548E0
:104DC000FBF76CFA244802F099F92448FFF7B8F988
:104DD000234804F058FC234801F08AFB224800F0E5
:104DE000BAF9224803F014FE2148FBF72FFF2148AF
:104DF00001F0A2F8204800F055F8204803F0BCFF6D
:104E00001F4803F06BFB1F4803F0AEFC1E48FEF783
:104E10005DF81E4802F019FD1D4801F045FB1D48D4
:104E200003F05FFF1C4805F065F91C48FCF7D7F953
:104E30001B48BDE80840FEF75DB900BF00610020D7
:104E4000401000205C390020E4120020F0320020E5
:104E5000207B0020C4AF0020A0670020189B00200A
:104E6000AC3E0020DC33002018A00020AC0A00205B
:104E7000A0300020E0910020E07A0020C0AF0020A8
:104E800094AF002014A0002069640020F06000208E
:104E9000AA0A0020E0320020BC0600208C2F00204F
:104EA0006C640020002310B503600371836000F17F
:104EB0000C040022E2520233302BFAD180F83C205D
:104EC00010BD000037B5836890F83C2000294FEAF8
:104ED0004303B8BF43F001038360531CDBB2172BBD
:104EE00000EB420280F83C3088BF002391810446E9
:104EF00088BF80F83C30806820F07F4334485840B9
:104F000001F090FA02282BD800214FF47A534CF28A
:104F10008012601812B2B0F90C001BB2023182424A
:104F2000B8BF02468342A8BF0346302992B29BB263
:104F3000EFD110B219B2451A052D11DD0012091278
:104F400000258DF801008DF802208DF8031021480E
:104F50008DF80050694605228DF80430FCF772FD8B
:104F6000A06820F07F431C48584001F05BFA0228FB
:104F70002BD800214FF47A534CF28012601812B2F1
:104F8000B0F90C001BB202318242B8BF0246834224
:104F9000A8BF0346302992B29BB2EFD110B219B22A
:104FA000441A052C11DD0012091280248DF801002D
:104FB0008DF802208DF8031006488DF800406946F0
:104FC00005228DF80430FCF73DFD03B030BD00BF75
:104FD00068B4AA008C2F0020974B55002DE9B841EA
:104FE00004460F4690460025ABB2434523D237F81E
:104FF00015102379C80B834209D02368B3F5004FFD
:105000002ABF6FF4CC7203F299139B1823602071AE
:10501000206800F54C533333B3F5803F01D2236051
:1050200007E0A0F54C43CD3B2360204609B2FFF7D3
:1050300049FF0135D8E7BDE8B88110B500230381E9
:105040000446438101800373084607F0C5FD606094
:10505000204610BD002303814381037370474289BA
:10506000038992B29BB29A42038803D1027B92B920
:10507000184612E04189028989B292B2914205D262
:105080000289408913FA80F0801A02E0418902897E
:10509000881A80B201E000207047834238BF0020A8
:1050A00070474289038992B29BB29A4205D1037B31
:1050B00003F0FF029BB1008870474289038992B2D6
:1050C0009BB29A4203D202894389D01A05E04389F0
:1050D0000288018912FA81F0C01A80B27047104626
:1050E0007047037B10B503F0FF02BBB90489436826
:1050F000A4B219550389018801339BB20381038946
:105100009BB2994298BF02810289438992B29BB2B5
:105110009A424FF0010303D1037301E0002010BD58
:10512000184610BD438942689BB2D05C704710B5E9
:105130004189426889B20346505C1C8800221A7378
:105140005989013189B25981598989B28C42C0B2D9
:1051500098BF5A8110BD0146002310B501F8023BEB
:105160000022CA520233142BFAD100F11604002394
:10517000A3520232B2F5706FF9D142F20F72A0F869
:10518000163FA0F8183FA0F81A2FA0F81C2FA0F87F
:105190001E2FA0F8202FA0F8222FC0F8243FA0F83F
:1051A000283F80F82A3F00F62C710022CA520233B1
:1051B000202BFAD1A0F84C2F00F64E7100238B5211
:1051C0000232202AFAD16322A0F86E3F80F8702FB5
:1051D000C0F8743FA0F8783F10BD6322002380F828
:1051E000702F42F20F720370A0F8183FA0F8163F1C
:1051F000C0F8243FA0F81A2FA0F81C2FA0F81E2FEB
:10520000A0F8202FA0F8222FA0F84C3FA0F86E3F66
:10521000A0F8283F80F82A3FC0F8743FA0F8783FF4
:1052200070470000F7B54FF47A534CF280150446EE
:105230004FF0000E1F462E461FFA8EF0904227D2E6
:1052400004EB4100B0F9160000280ADD36B23FB287
:10525000B042A8BF0646B842B8BF0746B6B2BFB212
:1052600009E01BB22DB29842B8BF0346A842A8BFBE
:1052700005469BB2ADB201F10A0080B2B0F5F06F05
:1052800024BFA1F2767188B20EF1010E0146D3E778
:105290003AB22DB202FA86F205FA83F352105B108D
:1052A000D1184910561AB6B200918FB231B201919D
:1052B00022482349FDF76EFA94F8703F632B0ED114
:1052C000234600220232202AA3F82C7FA3F84E6F37
:1052D00003F10203F6D1002384F8703F0BE004EBE6
:1052E00043020133DBB20F2BA2F82C7FA2F84E6FE2
:1052F00084F8703FEFD80023A4F84C3FA4F86E3F29
:10530000224619461846B2F82C5F2B44B2F84E5F7D
:105310000231284420299BB280B202F1020202D05D
:105320009BB280B2EFE743F30B1340F30B10A4F8EA
:105330004C3FA4F86E0F03B0F0BD00BF8C2F0020CF
:10534000DFE700082DE9F04FBDF82440BDF928A0A3
:10535000BDF92C9004F1020801341FFA88F8A4B2B8
:105360004FF0000C1FFA8CF5A8F102079542BFB26E
:105370004FD200EB4105FE10B5F816B0CAEB0B0B8F
:10538000C9F100050FFA8BFBAB4507F00707224D6B
:1053900007DA15F807B09F5D27EA0B079F55E6105F
:1053A0001DE0BBF1000F07DA15F807B09F5D27EA93
:1053B0000B079F55E61009E0CB45EF5D13F806B0EB
:1053C0004BEA07079F554FEAE40608DA04F007079F
:1053D000EF5D35469E5D26EA07065E5506E004F061
:1053E000070B9F5D15F80B503D439D5501F10A05D4
:1053F000ADB2B5F5F06F24BFA1F276718DB208F1B0
:10540000020802340CF1010C1FFA88F8A4B22946F4
:10541000A8E7BDE8F08F00BF4DE80008B0F8163FE0
:1054200000EB43032DE9F04704465888C0F3090018
:1054300080F4A67086B080F0010000F0F3FF02282F
:1054400000F2AC80B4F8180F00F22677BFB2B7F5BF
:10545000F06F28BFA0F15A024FF000012CBF92B2AA
:105460003A460D464FF47A564CF2801C04EB420348
:10547000DFF83881B3F9163011F908800FFA8CFC87
:1054800036B29C45B8BF9C469E42A8BF1E46B8F1A6
:10549000010F1FFA8CFCB6B20AD0B8F1030F05D089
:1054A000B8F1FF3F06D003EB430303E003EB4303F4
:1054B000ED1A00E01D4402F10A039BB2B3F5F06F50
:1054C00028BFA2F2767201F1010128BF93B20A2926
:1054D00001D01A46CAE7D4F8243F9D425EDD94F815
:1054E000703F632B10D10FFA8CFC0CFA86F6761005
:1054F000C6EB0C0CA4F84C6F44F63E1606FB0CFCF5
:105500004FEAEC3CA4F86ECFB7F5F06F28BFA0F1DE
:105510005A07B4F94C3F019328BFBFB20026B4F933
:105520006E3F02930DF114094B4600962046394612
:105530000A22FFF707FF2378B34214BF4FF0030A94
:105540004FF0010AB046174BF05C19F806301840CE
:10555000154BF35C584000F05FFF01364044032ECA
:105560005FFA80F8EFD1D04518D80623A4F8283F79
:10557000B4F8183FA4F81E3F03F21B7292B2B2F5C2
:10558000F06F28BF653BC4F8245FA4F81A7F34BFCE
:10559000A4F81C2FA4F81C3F012000E0002006B056
:1055A000BDE8F087DCE700084AE80008D2E7000819
:1055B00010B50446FFF732FFA0B194F82A3F8BB92B
:1055C000C4F8743FA4F8783F1B480121FDF7ECFEB6
:1055D00019480121FDF7F6FE632384F8703F052387
:1055E00084F82A3F94F82A3F13B1013B84F82A3FFC
:1055F00094F82A3F012B1ED1B4F81E3F03F27F72AC
:1056000092B2B2F5F06F28BF03F1FF32A4F8202F59
:105610005A1C92B2B2F5F06F24BFA3F27F73A4F8C4
:10562000223F4FF0010323704FF0000338BFA4F86E
:10563000222F84F82A3F10BD6C640020B0F8782F28
:1056400010B5044662B1D0F8740FB0FBF2F2C2F3A9
:10565000072081F8310081F832200648332201E02A
:1056600004483122FCF7A0F90023C4F8743FA4F8E1
:10567000783F10BD8C2F002030B5B0F8201FB0F857
:10568000222FB0F8183F914293B0044607D28B42C4
:1056900008D3934206D82046FFF7C0FE02E08B42B3
:1056A000F7D3F8E7B4F8182FB4F81C3F9A4269D141
:1056B000B4F8283F062B16D1B4F81E3F03F27F72D0
:1056C00092B2B2F5F06F28BF03F1FF32A4F8202F99
:1056D0005A1C92B2B2F5F06F2ABFA3F27F73A4F8FE
:1056E000222FA4F8223F2046B4F81A1FC022FFF749
:1056F00099FDB4F96E1FB4F91E2FB4F94C3F009117
:1057000021482249FCF7FFFF08230093B4F94C3FDE
:105710000193B4F96E3F0293B4F81A1F2046C022D9
:1057200005ABFFF70FFEB4F8285F013DADB2A4F85A
:10573000285FDDB914481649FCF7D4F91548294605
:10574000FDF732FE13482946FDF73CFE0E48FCF7F4
:1057500059F942F20F73A4F81C3F6323257084F8B3
:10576000703F84F82A5FC4F8245F0BE06B1F5D4232
:105770005D41204605A98DF81450FFF75FFF002317
:10578000C4F8243F13B030BD8C2F002000E800087F
:1057900028E800086C6400202DE9F04104460F461B
:1057A00090465E000025B5423ED038F80510D4F88A
:1057B000742F7B5BB4F8160F0A44C4F8742FB4F846
:1057C000782F04EB40000132A4F8782F428819B2F8
:1057D000520092B20029B8BF42F001024280B4F8F0
:1057E000182F04EB42022046D3822378012B02D1EA
:1057F000FFF742FF01E0FFF7DBFEB4F8183FB4F813
:10580000160F01339BB20130B3F5F06F80B228BFA1
:1058100000230928A4F8183F8ABF0023A4F8160F14
:10582000A4F8163F0235BEE7BDE8F0810346C26822
:1058300070B58468056940699E699960604305FB9D
:10584000010518681C6000FB0656D8691D6A00FB3C
:10585000126658685A6000FB1560C01300F30E0012
:1058600000B2D86070BD00001FB504460B48FDF7BC
:1058700097FD022810D904F624100DF10E0102F054
:1058800002FE48B10023009304480A210DF10E02E4
:105890000123FDF727FDE9E704B010BD6C6400208B
:1058A000002310B5044680F8343800F63800FDF7C0
:1058B00060FB04F50460FDF75CFB04F50560FDF793
:1058C00058FB04F65800FDF754FB04F50660FDF79D
:1058D00050FB04F66800FDF74CFB04F50760FDF78C
:1058E00048FB04F50060FBF7CFF804F58060FBF798
:1058F0004FFC2046FBF74CFC04F6280000F092FF1A
:1059000004F62410BDE8104002F0E2BD2DE9F74F87
:105910009DF834609DF830A09DF838B0C6EB0616AF
:105920000446B6009DF8400084F83508B6B28946B2
:1059300090469DF844109DF8482084F8361804F6E7
:10594000480584F837282846314600221F469DF82E
:105950003C300193FDF7FBFACAEB0A13990089B2B8
:1059600004F638000022FDF7F2FA16B12846FDF7DA
:10597000FBFA019B0D932046494642463B46CDF833
:1059800030B003B0BDE8F04FFBF7E4BA2DE9F047C3
:10599000BDF824609DF820709DF8285004468A4682
:1059A000914600F50660002132469846FDF7CFFA91
:1059B0002FB104F6580039463246FDF7C8FA08956B
:1059C000099504F5806051464A464346BDE8F047D4
:1059D000FBF7C0BA2DE9F74F04469DF844E09DF867
:1059E0003CC09DF8480084F8F4E816461D469DF832
:1059F0004C209DF8403084F8F508A4F8F62804F50A
:105A0000046000228DE808109DF830909DF83480E5
:105A10009DF850B09DF854A09DF83870FDF797FAA6
:105A2000DDF804C004F5056061460022FDF78FFA39
:105A3000009B0022194604F66800FDF788FA04F678
:105A40002800314600F0BDFE04F6E4005946324617
:105A5000FCF700FFA4F810A904F5006029464A46A7
:105A60004346FAF767FF40B904F5026029463A4613
:105A700003B0BDE8F04FFBF7DBB903B0BDE8F08F32
:105A800038B504460D4600F63800FDF775FA04F502
:105A900004602946FDF770FA04F648002946FDF730
:105AA0006BFA04F505602946FDF766FA04F658001E
:105AB0002946FDF761FA04F506602946FDF75CFA10
:105AC00004F668002946FDF757FA04F507602946F1
:105AD000BDE83840FDF750BA38B500F64805044631
